{
  "contractName": "ERC721",
  "abi": [
    {
      "inputs": [],
      "stateMutability": "nonpayable",
      "type": "constructor"
    },
    {
      "anonymous": false,
      "inputs": [
        {
          "indexed": true,
          "internalType": "address",
          "name": "_owner",
          "type": "address"
        },
        {
          "indexed": true,
          "internalType": "address",
          "name": "_approved",
          "type": "address"
        },
        {
          "indexed": true,
          "internalType": "uint256",
          "name": "_tokenId",
          "type": "uint256"
        }
      ],
      "name": "Approval",
      "type": "event"
    },
    {
      "anonymous": false,
      "inputs": [
        {
          "indexed": true,
          "internalType": "address",
          "name": "_from",
          "type": "address"
        },
        {
          "indexed": true,
          "internalType": "address",
          "name": "_to",
          "type": "address"
        },
        {
          "indexed": true,
          "internalType": "uint256",
          "name": "_tokenId",
          "type": "uint256"
        }
      ],
      "name": "Transfer",
      "type": "event"
    },
    {
      "inputs": [
        {
          "internalType": "bytes4",
          "name": "interfaceID",
          "type": "bytes4"
        }
      ],
      "name": "supportsInterface",
      "outputs": [
        {
          "internalType": "bool",
          "name": "",
          "type": "bool"
        }
      ],
      "stateMutability": "view",
      "type": "function"
    },
    {
      "inputs": [
        {
          "internalType": "address",
          "name": "_owner",
          "type": "address"
        }
      ],
      "name": "balanceOf",
      "outputs": [
        {
          "internalType": "uint256",
          "name": "",
          "type": "uint256"
        }
      ],
      "stateMutability": "view",
      "type": "function"
    },
    {
      "inputs": [
        {
          "internalType": "uint256",
          "name": "_tokenId",
          "type": "uint256"
        }
      ],
      "name": "ownerOf",
      "outputs": [
        {
          "internalType": "address",
          "name": "",
          "type": "address"
        }
      ],
      "stateMutability": "view",
      "type": "function"
    }
  ],
  "bytecode": "0x608060405234801561001057600080fd5b506100407f01ffc9a7a5cef8baa21ed3c5c0d7e23accb804b619e9333b597f47a0d84076e261009660201b60201c565b6100917f3a6eb71757dfc6e784c1459d26270140c2c147d95ca985c80026fc5301c3eca17f8a7e378434598edc36d108689a030cbc9d7d465de4f74c71bae1028eed6a881b1861009660201b60201c565b6101e7565b63ffffffff60e01b817bffffffffffffffffffffffffffffffffffffffffffffffffffffffff1916036100fe576040517f08c379a00000000000000000000000000000000000000000000000000000000081526004016100f5906101c7565b60405180910390fd5b6001600080837bffffffffffffffffffffffffffffffffffffffffffffffffffffffff19167bffffffffffffffffffffffffffffffffffffffffffffffffffffffff1916815260200190815260200160002060006101000a81548160ff02191690831515021790555050565b600082825260208201905092915050565b7f496e76616c696420696e74657266616365207265717565737400000000000000600082015250565b60006101b160198361016a565b91506101bc8261017b565b602082019050919050565b600060208201905081810360008301526101e0816101a4565b9050919050565b610612806101f66000396000f3fe608060405234801561001057600080fd5b50600436106100415760003560e01c806301ffc9a7146100465780636352211e1461007657806370a08231146100a6575b600080fd5b610060600480360381019061005b9190610302565b6100d6565b60405161006d919061034a565b60405180910390f35b610090600480360381019061008b919061039b565b61013d565b60405161009d9190610409565b60405180910390f35b6100c060048036038101906100bb9190610450565b6101ee565b6040516100cd919061048c565b60405180910390f35b6000806000837bffffffffffffffffffffffffffffffffffffffffffffffffffffffff19167bffffffffffffffffffffffffffffffffffffffffffffffffffffffff1916815260200190815260200160002060009054906101000a900460ff169050919050565b6000806001600084815260200190815260200160002060009054906101000a900473ffffffffffffffffffffffffffffffffffffffff169050600073ffffffffffffffffffffffffffffffffffffffff168173ffffffffffffffffffffffffffffffffffffffff16036101e5576040517f08c379a00000000000000000000000000000000000000000000000000000000081526004016101dc9061052a565b60405180910390fd5b80915050919050565b60008073ffffffffffffffffffffffffffffffffffffffff168273ffffffffffffffffffffffffffffffffffffffff160361025e576040517f08c379a0000000000000000000000000000000000000000000000000000000008152600401610255906105bc565b60405180910390fd5b600260008373ffffffffffffffffffffffffffffffffffffffff1673ffffffffffffffffffffffffffffffffffffffff168152602001908152602001600020549050919050565b600080fd5b60007fffffffff0000000000000000000000000000000000000000000000000000000082169050919050565b6102df816102aa565b81146102ea57600080fd5b50565b6000813590506102fc816102d6565b92915050565b600060208284031215610318576103176102a5565b5b6000610326848285016102ed565b91505092915050565b60008115159050919050565b6103448161032f565b82525050565b600060208201905061035f600083018461033b565b92915050565b6000819050919050565b61037881610365565b811461038357600080fd5b50565b6000813590506103958161036f565b92915050565b6000602082840312156103b1576103b06102a5565b5b60006103bf84828501610386565b91505092915050565b600073ffffffffffffffffffffffffffffffffffffffff82169050919050565b60006103f3826103c8565b9050919050565b610403816103e8565b82525050565b600060208201905061041e60008301846103fa565b92915050565b61042d816103e8565b811461043857600080fd5b50565b60008135905061044a81610424565b92915050565b600060208284031215610466576104656102a5565b5b60006104748482850161043b565b91505092915050565b61048681610365565b82525050565b60006020820190506104a1600083018461047d565b92915050565b600082825260208201905092915050565b7f4552433732313a206f776e657220717565727920666f72206e6f6e657869737460008201527f656e7420746f6b656e0000000000000000000000000000000000000000000000602082015250565b60006105146029836104a7565b915061051f826104b8565b604082019050919050565b6000602082019050818103600083015261054381610507565b9050919050565b7f4552433732313a2062616c616e636520717565727920666f7220746865207a6560008201527f726f206164647265737300000000000000000000000000000000000000000000602082015250565b60006105a6602a836104a7565b91506105b18261054a565b604082019050919050565b600060208201905081810360008301526105d581610599565b905091905056fea2646970667358221220ffa6f5fd25ca90b1700f9b858712d390e91d56a2e4e40e9228cddb61f3ef7b4f64736f6c634300080d0033",
  "immutableReferences": {},
  "source": "// SPDX-License-Identifier: MIT\r\npragma solidity >=0.4.22 <0.9.0;\r\n\r\nimport './interfaces/IERC721.sol';\r\nimport './ERC165.sol';\r\n\r\n\r\n  /*\r\n\r\n  a. nft to point to an address\r\n  b. keep track of the token ids\r\n  c. keep track of the owner of the token ids\r\n  -> NFT     \r\n  d. keep track of how many tokens an owner address has\r\n  e. create an event that emits a transfer log \r\n  - contract address, where it is being minted to, the id\r\n\r\n  */\r\n\r\ncontract ERC721 is ERC165, IERC721 {\r\n\r\n  // event Transfer(address indexed from, address indexed to, uint256 indexed tokenId);\r\n\r\n  // mapping in solidity creates a hash table of key pair values\r\n\r\n  // Mapping from token id to the owner\r\n  //  ID    (      )\r\n  mapping(uint256 => address) private _tokenOwner;\r\n\r\n  // Mapping from owner to number of owned token\r\n  mapping(address => uint256) private _OwnedTokensCount;\r\n\r\n    constructor() {\r\n      _registerInterface(bytes4(keccak256('balanceOf(bytes4)')^\r\n      keccak256('ownerOf(bytes4)')));\r\n  }\r\n\r\n  /// @notice Count all NFTs assigned to an owner\r\n  /// @dev NFTs assigned to the zero address are considered invalid, and this\r\n  ///  function throws for queries about the zero address.\r\n  /// @param _owner An address for whom to query the balance\r\n  /// @return The number of NFTs owned by `_owner`, possibly zero\r\n  //        \r\n  function balanceOf(address _owner) public override view returns(uint256) {\r\n    require(_owner != address(0), \"ERC721: balance query for the zero address\");\r\n    return _OwnedTokensCount[_owner];\r\n  }\r\n\r\n  /// @notice Find the owner of an NFT\r\n  /// @dev NFTs assigned to zero address are considered invalid, and queries\r\n  ///  about them do throw.\r\n  /// @param _tokenId The identifier for an NFT\r\n  /// @return The address of the owner of the NFT\r\n  //    \r\n  function ownerOf(uint256 _tokenId) external override view returns (address) {\r\n    address owner = _tokenOwner[_tokenId];\r\n    require(owner != address(0), \"ERC721: owner query for nonexistent token\");\r\n    return owner;\r\n  }\r\n\r\n  function _exists(uint256 tokenId) internal view returns (bool) {\r\n    // setting the address of nft owner to check the mapping\r\n    // of the address from tokenOwner at the tokenId\r\n    address owner = _tokenOwner[tokenId];\r\n    // return truthiness the address is not the zero\r\n    return owner != address(0); \r\n  }\r\n\r\n  function _mint(address to, uint256 tokenId) internal virtual {\r\n    require(to != address(0), \"ERC721: minting to the zero address\"); //  0  \r\n    require(!_exists(tokenId), \"ERC721: token already minted\"); //    \r\n    _tokenOwner[tokenId] = to; //   to \r\n    _OwnedTokensCount[to] += 1; // to  \r\n\r\n    emit Transfer(address(0), to, tokenId);\r\n  }\r\n}\r\n\r\n// enumerable ->         ",
  "sourcePath": "C:\\git\\2po\\2plusone\\src\\contracts\\ERC721.sol",
  "compiler": {
    "name": "solc",
    "version": "0.8.13+commit.abaa5c0e.Emscripten.clang"
  },
  "schemaVersion": "3.4.14",
  "updatedAt": "2023-08-01T13:21:32.701Z",
  "devdoc": {
    "kind": "dev",
    "methods": {
      "balanceOf(address)": {
        "details": "NFTs assigned to the zero address are considered invalid, and this  function throws for queries about the zero address.",
        "params": {
          "_owner": "An address for whom to query the balance"
        },
        "returns": {
          "_0": "The number of NFTs owned by `_owner`, possibly zero"
        }
      },
      "ownerOf(uint256)": {
        "details": "NFTs assigned to zero address are considered invalid, and queries  about them do throw.",
        "params": {
          "_tokenId": "The identifier for an NFT"
        },
        "returns": {
          "_0": "The address of the owner of the NFT"
        }
      },
      "supportsInterface(bytes4)": {
        "details": "Interface identification is specified in ERC-165. This function  uses less than 30,000 gas.",
        "params": {
          "interfaceID": "The interface identifier, as specified in ERC-165"
        },
        "returns": {
          "_0": "`true` if the contract implements `interfaceID` and  `interfaceID` is not 0xffffffff, `false` otherwise"
        }
      }
    },
    "version": 1
  },
  "userdoc": {
    "kind": "user",
    "methods": {
      "balanceOf(address)": {
        "notice": "Count all NFTs assigned to an owner"
      },
      "ownerOf(uint256)": {
        "notice": "Find the owner of an NFT"
      },
      "supportsInterface(bytes4)": {
        "notice": "Query if a contract implements an interface"
      }
    },
    "version": 1
  }
}