{
  "contractName": "ERC721Enumerable",
  "abi": [
    {
      "inputs": [],
      "stateMutability": "nonpayable",
      "type": "constructor"
    },
    {
      "anonymous": false,
      "inputs": [
        {
          "indexed": true,
          "internalType": "address",
          "name": "_owner",
          "type": "address"
        },
        {
          "indexed": true,
          "internalType": "address",
          "name": "_approved",
          "type": "address"
        },
        {
          "indexed": true,
          "internalType": "uint256",
          "name": "_tokenId",
          "type": "uint256"
        }
      ],
      "name": "Approval",
      "type": "event"
    },
    {
      "anonymous": false,
      "inputs": [
        {
          "indexed": true,
          "internalType": "address",
          "name": "_from",
          "type": "address"
        },
        {
          "indexed": true,
          "internalType": "address",
          "name": "_to",
          "type": "address"
        },
        {
          "indexed": true,
          "internalType": "uint256",
          "name": "_tokenId",
          "type": "uint256"
        }
      ],
      "name": "Transfer",
      "type": "event"
    },
    {
      "inputs": [
        {
          "internalType": "address",
          "name": "_owner",
          "type": "address"
        }
      ],
      "name": "balanceOf",
      "outputs": [
        {
          "internalType": "uint256",
          "name": "",
          "type": "uint256"
        }
      ],
      "stateMutability": "view",
      "type": "function"
    },
    {
      "inputs": [
        {
          "internalType": "uint256",
          "name": "_tokenId",
          "type": "uint256"
        }
      ],
      "name": "ownerOf",
      "outputs": [
        {
          "internalType": "address",
          "name": "",
          "type": "address"
        }
      ],
      "stateMutability": "view",
      "type": "function"
    },
    {
      "inputs": [
        {
          "internalType": "bytes4",
          "name": "interfaceID",
          "type": "bytes4"
        }
      ],
      "name": "supportsInterface",
      "outputs": [
        {
          "internalType": "bool",
          "name": "",
          "type": "bool"
        }
      ],
      "stateMutability": "view",
      "type": "function"
    },
    {
      "inputs": [
        {
          "internalType": "uint256",
          "name": "index",
          "type": "uint256"
        }
      ],
      "name": "tokenByIndex",
      "outputs": [
        {
          "internalType": "uint256",
          "name": "",
          "type": "uint256"
        }
      ],
      "stateMutability": "view",
      "type": "function"
    },
    {
      "inputs": [
        {
          "internalType": "address",
          "name": "owner",
          "type": "address"
        },
        {
          "internalType": "uint256",
          "name": "index",
          "type": "uint256"
        }
      ],
      "name": "tokenOfOwnerByIndex",
      "outputs": [
        {
          "internalType": "uint256",
          "name": "",
          "type": "uint256"
        }
      ],
      "stateMutability": "view",
      "type": "function"
    },
    {
      "inputs": [],
      "name": "totalSupply",
      "outputs": [
        {
          "internalType": "uint256",
          "name": "",
          "type": "uint256"
        }
      ],
      "stateMutability": "view",
      "type": "function"
    }
  ],
  "bytecode": "0x608060405234801561001057600080fd5b506100407f01ffc9a7a5cef8baa21ed3c5c0d7e23accb804b619e9333b597f47a0d84076e26100e760201b60201c565b6100917f3a6eb71757dfc6e784c1459d26270140c2c147d95ca985c80026fc5301c3eca17f8a7e378434598edc36d108689a030cbc9d7d465de4f74c71bae1028eed6a881b186100e760201b60201c565b6100e27f6da5e1284143cdd2d15038a59bde3be031250f00291d64494c12d967b3a4e0c37fc53637662700e6c65104059db8bba34439e0c32483ab7c34e3ccae52c7395495186100e760201b60201c565b610238565b63ffffffff60e01b817bffffffffffffffffffffffffffffffffffffffffffffffffffffffff19160361014f576040517f08c379a000000000000000000000000000000000000000000000000000000000815260040161014690610218565b60405180910390fd5b6001600080837bffffffffffffffffffffffffffffffffffffffffffffffffffffffff19167bffffffffffffffffffffffffffffffffffffffffffffffffffffffff1916815260200190815260200160002060006101000a81548160ff02191690831515021790555050565b600082825260208201905092915050565b7f496e76616c696420696e74657266616365207265717565737400000000000000600082015250565b60006102026019836101bb565b915061020d826101cc565b602082019050919050565b60006020820190508181036000830152610231816101f5565b9050919050565b610972806102476000396000f3fe608060405234801561001057600080fd5b50600436106100625760003560e01c806301ffc9a71461006757806318160ddd146100975780632f745c59146100b55780634f6ccce7146100e55780636352211e1461011557806370a0823114610145575b600080fd5b610081600480360381019061007c91906104cf565b610175565b60405161008e9190610517565b60405180910390f35b61009f6101dc565b6040516100ac919061054b565b60405180910390f35b6100cf60048036038101906100ca91906105f0565b6101e9565b6040516100dc919061054b565b60405180910390f35b6100ff60048036038101906100fa9190610630565b610299565b60405161010c919061054b565b60405180910390f35b61012f600480360381019061012a9190610630565b61030a565b60405161013c919061066c565b60405180910390f35b61015f600480360381019061015a9190610687565b6103bb565b60405161016c919061054b565b60405180910390f35b6000806000837bffffffffffffffffffffffffffffffffffffffffffffffffffffffff19167bffffffffffffffffffffffffffffffffffffffffffffffffffffffff1916815260200190815260200160002060009054906101000a900460ff169050919050565b6000600380549050905090565b60006101f4836103bb565b8210610235576040517f08c379a000000000000000000000000000000000000000000000000000000000815260040161022c90610737565b60405180910390fd5b600560008473ffffffffffffffffffffffffffffffffffffffff1673ffffffffffffffffffffffffffffffffffffffff168152602001908152602001600020828154811061028657610285610757565b5b9060005260206000200154905092915050565b60006102a36101dc565b82106102e4576040517f08c379a00000000000000000000000000000000000000000000000000000000081526004016102db906107f8565b60405180910390fd5b600382815481106102f8576102f7610757565b5b90600052602060002001549050919050565b6000806001600084815260200190815260200160002060009054906101000a900473ffffffffffffffffffffffffffffffffffffffff169050600073ffffffffffffffffffffffffffffffffffffffff168173ffffffffffffffffffffffffffffffffffffffff16036103b2576040517f08c379a00000000000000000000000000000000000000000000000000000000081526004016103a99061088a565b60405180910390fd5b80915050919050565b60008073ffffffffffffffffffffffffffffffffffffffff168273ffffffffffffffffffffffffffffffffffffffff160361042b576040517f08c379a00000000000000000000000000000000000000000000000000000000081526004016104229061091c565b60405180910390fd5b600260008373ffffffffffffffffffffffffffffffffffffffff1673ffffffffffffffffffffffffffffffffffffffff168152602001908152602001600020549050919050565b600080fd5b60007fffffffff0000000000000000000000000000000000000000000000000000000082169050919050565b6104ac81610477565b81146104b757600080fd5b50565b6000813590506104c9816104a3565b92915050565b6000602082840312156104e5576104e4610472565b5b60006104f3848285016104ba565b91505092915050565b60008115159050919050565b610511816104fc565b82525050565b600060208201905061052c6000830184610508565b92915050565b6000819050919050565b61054581610532565b82525050565b6000602082019050610560600083018461053c565b92915050565b600073ffffffffffffffffffffffffffffffffffffffff82169050919050565b600061059182610566565b9050919050565b6105a181610586565b81146105ac57600080fd5b50565b6000813590506105be81610598565b92915050565b6105cd81610532565b81146105d857600080fd5b50565b6000813590506105ea816105c4565b92915050565b6000806040838503121561060757610606610472565b5b6000610615858286016105af565b9250506020610626858286016105db565b9150509250929050565b60006020828403121561064657610645610472565b5b6000610654848285016105db565b91505092915050565b61066681610586565b82525050565b6000602082019050610681600083018461065d565b92915050565b60006020828403121561069d5761069c610472565b5b60006106ab848285016105af565b91505092915050565b600082825260208201905092915050565b7f455243373231456e756d657261626c653a206f776e657220696e646578206f7560008201527f74206f6620626f756e6473000000000000000000000000000000000000000000602082015250565b6000610721602b836106b4565b915061072c826106c5565b604082019050919050565b6000602082019050818103600083015261075081610714565b9050919050565b7f4e487b7100000000000000000000000000000000000000000000000000000000600052603260045260246000fd5b7f455243373231456e756d657261626c653a20676c6f62616c20696e646578206f60008201527f7574206f6620626f756e64730000000000000000000000000000000000000000602082015250565b60006107e2602c836106b4565b91506107ed82610786565b604082019050919050565b60006020820190508181036000830152610811816107d5565b9050919050565b7f4552433732313a206f776e657220717565727920666f72206e6f6e657869737460008201527f656e7420746f6b656e0000000000000000000000000000000000000000000000602082015250565b60006108746029836106b4565b915061087f82610818565b604082019050919050565b600060208201905081810360008301526108a381610867565b9050919050565b7f4552433732313a2062616c616e636520717565727920666f7220746865207a6560008201527f726f206164647265737300000000000000000000000000000000000000000000602082015250565b6000610906602a836106b4565b9150610911826108aa565b604082019050919050565b60006020820190508181036000830152610935816108f9565b905091905056fea264697066735822122005b746a34ac8726379e8a8ee44783a041b26fa993ff607558b9a3321b49874c164736f6c634300080d0033",
  "immutableReferences": {},
  "source": "// SPDX-License-Identifier: MIT\r\npragma solidity >=0.4.22 <0.9.0;\r\n\r\nimport './ERC721.sol';\r\nimport './interfaces/IERC721Enumerable.sol';\r\n\r\ncontract ERC721Enumerable is ERC721, IERC721Enumerable {\r\n\r\n  uint256[] private _allTokens;\r\n\r\n  // mapping from tokenId to position in the allTokens array\r\n  mapping(uint256 => uint256) private _allTokensIndex;\r\n\r\n  // mapping of owner to list of all owner token ids\r\n  mapping(address => uint256[]) private _ownedTokens;\r\n\r\n  // mapping from token ID index of the owner token ids\r\n  mapping(uint256 => uint256) private _ownedTokensIndex;\r\n\r\n    constructor() {\r\n      _registerInterface(bytes4(keccak256('totalSupply(bytes4)')^\r\n      keccak256('tokenByIndex(bytes4)')));\r\n  }\r\n  \r\n  function _mint(address to, uint256 tokenId) internal override(ERC721) {\r\n    super._mint(to, tokenId);\r\n    _addTokenAllTokenEnumeration(tokenId);\r\n    _addTokenToOwnerEnumeration(to, tokenId);\r\n  } //    \r\n\r\n  function _addTokenAllTokenEnumeration(uint256 tokenId) private {\r\n    _allTokensIndex[tokenId] = _allTokens.length;\r\n    _allTokens.push(tokenId);\r\n  } //   \r\n\r\n  function _addTokenToOwnerEnumeration(address to, uint256 tokenId) private {\r\n    _ownedTokensIndex[tokenId] = _ownedTokens[to].length;\r\n    _ownedTokens[to].push(tokenId);\r\n  } //   \r\n\r\n  function tokenByIndex(uint256 index) public view override returns (uint256) {\r\n    require(index < totalSupply(), \"ERC721Enumerable: global index out of bounds\");\r\n    return _allTokens[index];\r\n  } //    ( )\r\n\r\n  function tokenOfOwnerByIndex(address owner, uint256 index) public view override returns (uint256) {\r\n    require(index < balanceOf(owner), \"ERC721Enumerable: owner index out of bounds\");\r\n    return _ownedTokens[owner][index];\r\n  } //      ( )\r\n\r\n  function totalSupply() public view override returns (uint256) {\r\n    return _allTokens.length;\r\n  } //   \r\n}",
  "sourcePath": "C:\\git\\2po\\2plusone\\src\\contracts\\ERC721Enumerable.sol",
  "compiler": {
    "name": "solc",
    "version": "0.8.13+commit.abaa5c0e.Emscripten.clang"
  },
  "schemaVersion": "3.4.14",
  "updatedAt": "2023-08-01T13:21:32.713Z",
  "devdoc": {
    "kind": "dev",
    "methods": {
      "balanceOf(address)": {
        "details": "NFTs assigned to the zero address are considered invalid, and this  function throws for queries about the zero address.",
        "params": {
          "_owner": "An address for whom to query the balance"
        },
        "returns": {
          "_0": "The number of NFTs owned by `_owner`, possibly zero"
        }
      },
      "ownerOf(uint256)": {
        "details": "NFTs assigned to zero address are considered invalid, and queries  about them do throw.",
        "params": {
          "_tokenId": "The identifier for an NFT"
        },
        "returns": {
          "_0": "The address of the owner of the NFT"
        }
      },
      "supportsInterface(bytes4)": {
        "details": "Interface identification is specified in ERC-165. This function  uses less than 30,000 gas.",
        "params": {
          "interfaceID": "The interface identifier, as specified in ERC-165"
        },
        "returns": {
          "_0": "`true` if the contract implements `interfaceID` and  `interfaceID` is not 0xffffffff, `false` otherwise"
        }
      }
    },
    "version": 1
  },
  "userdoc": {
    "kind": "user",
    "methods": {
      "balanceOf(address)": {
        "notice": "Count all NFTs assigned to an owner"
      },
      "ownerOf(uint256)": {
        "notice": "Find the owner of an NFT"
      },
      "supportsInterface(bytes4)": {
        "notice": "Query if a contract implements an interface"
      }
    },
    "version": 1
  }
}