{
  "contractName": "ERC721Connector",
  "abi": [
    {
      "inputs": [
        {
          "internalType": "string",
          "name": "named",
          "type": "string"
        },
        {
          "internalType": "string",
          "name": "symbolified",
          "type": "string"
        }
      ],
      "stateMutability": "nonpayable",
      "type": "constructor"
    },
    {
      "anonymous": false,
      "inputs": [
        {
          "indexed": true,
          "internalType": "address",
          "name": "_owner",
          "type": "address"
        },
        {
          "indexed": true,
          "internalType": "address",
          "name": "_approved",
          "type": "address"
        },
        {
          "indexed": true,
          "internalType": "uint256",
          "name": "_tokenId",
          "type": "uint256"
        }
      ],
      "name": "Approval",
      "type": "event"
    },
    {
      "anonymous": false,
      "inputs": [
        {
          "indexed": true,
          "internalType": "address",
          "name": "_from",
          "type": "address"
        },
        {
          "indexed": true,
          "internalType": "address",
          "name": "_to",
          "type": "address"
        },
        {
          "indexed": true,
          "internalType": "uint256",
          "name": "_tokenId",
          "type": "uint256"
        }
      ],
      "name": "Transfer",
      "type": "event"
    },
    {
      "inputs": [
        {
          "internalType": "address",
          "name": "_owner",
          "type": "address"
        }
      ],
      "name": "balanceOf",
      "outputs": [
        {
          "internalType": "uint256",
          "name": "",
          "type": "uint256"
        }
      ],
      "stateMutability": "view",
      "type": "function"
    },
    {
      "inputs": [],
      "name": "name",
      "outputs": [
        {
          "internalType": "string",
          "name": "",
          "type": "string"
        }
      ],
      "stateMutability": "view",
      "type": "function"
    },
    {
      "inputs": [
        {
          "internalType": "uint256",
          "name": "_tokenId",
          "type": "uint256"
        }
      ],
      "name": "ownerOf",
      "outputs": [
        {
          "internalType": "address",
          "name": "",
          "type": "address"
        }
      ],
      "stateMutability": "view",
      "type": "function"
    },
    {
      "inputs": [
        {
          "internalType": "bytes4",
          "name": "interfaceID",
          "type": "bytes4"
        }
      ],
      "name": "supportsInterface",
      "outputs": [
        {
          "internalType": "bool",
          "name": "",
          "type": "bool"
        }
      ],
      "stateMutability": "view",
      "type": "function"
    },
    {
      "inputs": [],
      "name": "symbol",
      "outputs": [
        {
          "internalType": "string",
          "name": "",
          "type": "string"
        }
      ],
      "stateMutability": "view",
      "type": "function"
    },
    {
      "inputs": [
        {
          "internalType": "uint256",
          "name": "index",
          "type": "uint256"
        }
      ],
      "name": "tokenByIndex",
      "outputs": [
        {
          "internalType": "uint256",
          "name": "",
          "type": "uint256"
        }
      ],
      "stateMutability": "view",
      "type": "function"
    },
    {
      "inputs": [
        {
          "internalType": "address",
          "name": "owner",
          "type": "address"
        },
        {
          "internalType": "uint256",
          "name": "index",
          "type": "uint256"
        }
      ],
      "name": "tokenOfOwnerByIndex",
      "outputs": [
        {
          "internalType": "uint256",
          "name": "",
          "type": "uint256"
        }
      ],
      "stateMutability": "view",
      "type": "function"
    },
    {
      "inputs": [],
      "name": "totalSupply",
      "outputs": [
        {
          "internalType": "uint256",
          "name": "",
          "type": "uint256"
        }
      ],
      "stateMutability": "view",
      "type": "function"
    }
  ],
  "bytecode": "0x60806040523480156200001157600080fd5b5060405162001241380380620012418339818101604052810190620000379190620004c3565b81816200006a7f01ffc9a7a5cef8baa21ed3c5c0d7e23accb804b619e9333b597f47a0d84076e26200019f60201b60201c565b620000bd7f13b182f4c0e5b2efbac0efe6cf6d756c8b89f4b79c5707a043ed9ea740574ee97f7feaf19471f34a12a7eaf32d5f3090aa2260ea8624dc8a138e74e0bf0f623076186200019f60201b60201c565b8160019080519060200190620000d592919062000276565b508060029080519060200190620000ee92919062000276565b505050620001447f3a6eb71757dfc6e784c1459d26270140c2c147d95ca985c80026fc5301c3eca17f8a7e378434598edc36d108689a030cbc9d7d465de4f74c71bae1028eed6a881b186200019f60201b60201c565b620001977f6da5e1284143cdd2d15038a59bde3be031250f00291d64494c12d967b3a4e0c37fc53637662700e6c65104059db8bba34439e0c32483ab7c34e3ccae52c7395495186200019f60201b60201c565b50506200062f565b63ffffffff60e01b817bffffffffffffffffffffffffffffffffffffffffffffffffffffffff1916036200020a576040517f08c379a00000000000000000000000000000000000000000000000000000000081526004016200020190620005a9565b60405180910390fd5b6001600080837bffffffffffffffffffffffffffffffffffffffffffffffffffffffff19167bffffffffffffffffffffffffffffffffffffffffffffffffffffffff1916815260200190815260200160002060006101000a81548160ff02191690831515021790555050565b8280546200028490620005fa565b90600052602060002090601f016020900481019282620002a85760008555620002f4565b82601f10620002c357805160ff1916838001178555620002f4565b82800160010185558215620002f4579182015b82811115620002f3578251825591602001919060010190620002d6565b5b50905062000303919062000307565b5090565b5b808211156200032257600081600090555060010162000308565b5090565b6000604051905090565b600080fd5b600080fd5b600080fd5b600080fd5b6000601f19601f8301169050919050565b7f4e487b7100000000000000000000000000000000000000000000000000000000600052604160045260246000fd5b6200038f8262000344565b810181811067ffffffffffffffff82111715620003b157620003b062000355565b5b80604052505050565b6000620003c662000326565b9050620003d4828262000384565b919050565b600067ffffffffffffffff821115620003f757620003f662000355565b5b620004028262000344565b9050602081019050919050565b60005b838110156200042f57808201518184015260208101905062000412565b838111156200043f576000848401525b50505050565b60006200045c6200045684620003d9565b620003ba565b9050828152602081018484840111156200047b576200047a6200033f565b5b620004888482856200040f565b509392505050565b600082601f830112620004a857620004a76200033a565b5b8151620004ba84826020860162000445565b91505092915050565b60008060408385031215620004dd57620004dc62000330565b5b600083015167ffffffffffffffff811115620004fe57620004fd62000335565b5b6200050c8582860162000490565b925050602083015167ffffffffffffffff81111562000530576200052f62000335565b5b6200053e8582860162000490565b9150509250929050565b600082825260208201905092915050565b7f496e76616c696420696e74657266616365207265717565737400000000000000600082015250565b60006200059160198362000548565b91506200059e8262000559565b602082019050919050565b60006020820190508181036000830152620005c48162000582565b9050919050565b7f4e487b7100000000000000000000000000000000000000000000000000000000600052602260045260246000fd5b600060028204905060018216806200061357607f821691505b602082108103620006295762000628620005cb565b5b50919050565b610c02806200063f6000396000f3fe608060405234801561001057600080fd5b50600436106100885760003560e01c80634f6ccce71161005b5780634f6ccce7146101295780636352211e1461015957806370a082311461018957806395d89b41146101b957610088565b806301ffc9a71461008d57806306fdde03146100bd57806318160ddd146100db5780632f745c59146100f9575b600080fd5b6100a760048036038101906100a29190610655565b6101d7565b6040516100b4919061069d565b60405180910390f35b6100c561023e565b6040516100d29190610751565b60405180910390f35b6100e36102d0565b6040516100f0919061078c565b60405180910390f35b610113600480360381019061010e9190610831565b6102dd565b604051610120919061078c565b60405180910390f35b610143600480360381019061013e9190610871565b61038d565b604051610150919061078c565b60405180910390f35b610173600480360381019061016e9190610871565b6103fe565b60405161018091906108ad565b60405180910390f35b6101a3600480360381019061019e91906108c8565b6104af565b6040516101b0919061078c565b60405180910390f35b6101c1610566565b6040516101ce9190610751565b60405180910390f35b6000806000837bffffffffffffffffffffffffffffffffffffffffffffffffffffffff19167bffffffffffffffffffffffffffffffffffffffffffffffffffffffff1916815260200190815260200160002060009054906101000a900460ff169050919050565b60606001805461024d90610924565b80601f016020809104026020016040519081016040528092919081815260200182805461027990610924565b80156102c65780601f1061029b576101008083540402835291602001916102c6565b820191906000526020600020905b8154815290600101906020018083116102a957829003601f168201915b5050505050905090565b6000600580549050905090565b60006102e8836104af565b8210610329576040517f08c379a0000000000000000000000000000000000000000000000000000000008152600401610320906109c7565b60405180910390fd5b600760008473ffffffffffffffffffffffffffffffffffffffff1673ffffffffffffffffffffffffffffffffffffffff168152602001908152602001600020828154811061037a576103796109e7565b5b9060005260206000200154905092915050565b60006103976102d0565b82106103d8576040517f08c379a00000000000000000000000000000000000000000000000000000000081526004016103cf90610a88565b60405180910390fd5b600582815481106103ec576103eb6109e7565b5b90600052602060002001549050919050565b6000806003600084815260200190815260200160002060009054906101000a900473ffffffffffffffffffffffffffffffffffffffff169050600073ffffffffffffffffffffffffffffffffffffffff168173ffffffffffffffffffffffffffffffffffffffff16036104a6576040517f08c379a000000000000000000000000000000000000000000000000000000000815260040161049d90610b1a565b60405180910390fd5b80915050919050565b60008073ffffffffffffffffffffffffffffffffffffffff168273ffffffffffffffffffffffffffffffffffffffff160361051f576040517f08c379a000000000000000000000000000000000000000000000000000000000815260040161051690610bac565b60405180910390fd5b600460008373ffffffffffffffffffffffffffffffffffffffff1673ffffffffffffffffffffffffffffffffffffffff168152602001908152602001600020549050919050565b60606002805461057590610924565b80601f01602080910402602001604051908101604052809291908181526020018280546105a190610924565b80156105ee5780601f106105c3576101008083540402835291602001916105ee565b820191906000526020600020905b8154815290600101906020018083116105d157829003601f168201915b5050505050905090565b600080fd5b60007fffffffff0000000000000000000000000000000000000000000000000000000082169050919050565b610632816105fd565b811461063d57600080fd5b50565b60008135905061064f81610629565b92915050565b60006020828403121561066b5761066a6105f8565b5b600061067984828501610640565b91505092915050565b60008115159050919050565b61069781610682565b82525050565b60006020820190506106b2600083018461068e565b92915050565b600081519050919050565b600082825260208201905092915050565b60005b838110156106f25780820151818401526020810190506106d7565b83811115610701576000848401525b50505050565b6000601f19601f8301169050919050565b6000610723826106b8565b61072d81856106c3565b935061073d8185602086016106d4565b61074681610707565b840191505092915050565b6000602082019050818103600083015261076b8184610718565b905092915050565b6000819050919050565b61078681610773565b82525050565b60006020820190506107a1600083018461077d565b92915050565b600073ffffffffffffffffffffffffffffffffffffffff82169050919050565b60006107d2826107a7565b9050919050565b6107e2816107c7565b81146107ed57600080fd5b50565b6000813590506107ff816107d9565b92915050565b61080e81610773565b811461081957600080fd5b50565b60008135905061082b81610805565b92915050565b60008060408385031215610848576108476105f8565b5b6000610856858286016107f0565b92505060206108678582860161081c565b9150509250929050565b600060208284031215610887576108866105f8565b5b60006108958482850161081c565b91505092915050565b6108a7816107c7565b82525050565b60006020820190506108c2600083018461089e565b92915050565b6000602082840312156108de576108dd6105f8565b5b60006108ec848285016107f0565b91505092915050565b7f4e487b7100000000000000000000000000000000000000000000000000000000600052602260045260246000fd5b6000600282049050600182168061093c57607f821691505b60208210810361094f5761094e6108f5565b5b50919050565b7f455243373231456e756d657261626c653a206f776e657220696e646578206f7560008201527f74206f6620626f756e6473000000000000000000000000000000000000000000602082015250565b60006109b1602b836106c3565b91506109bc82610955565b604082019050919050565b600060208201905081810360008301526109e0816109a4565b9050919050565b7f4e487b7100000000000000000000000000000000000000000000000000000000600052603260045260246000fd5b7f455243373231456e756d657261626c653a20676c6f62616c20696e646578206f60008201527f7574206f6620626f756e64730000000000000000000000000000000000000000602082015250565b6000610a72602c836106c3565b9150610a7d82610a16565b604082019050919050565b60006020820190508181036000830152610aa181610a65565b9050919050565b7f4552433732313a206f776e657220717565727920666f72206e6f6e657869737460008201527f656e7420746f6b656e0000000000000000000000000000000000000000000000602082015250565b6000610b046029836106c3565b9150610b0f82610aa8565b604082019050919050565b60006020820190508181036000830152610b3381610af7565b9050919050565b7f4552433732313a2062616c616e636520717565727920666f7220746865207a6560008201527f726f206164647265737300000000000000000000000000000000000000000000602082015250565b6000610b96602a836106c3565b9150610ba182610b3a565b604082019050919050565b60006020820190508181036000830152610bc581610b89565b905091905056fea26469706673582212206b65a5652191976d428c5d1b960ea8d52c06c899ffb6bb67cb37f6fff400144f64736f6c634300080d0033",
  "immutableReferences": {},
  "source": "// SPDX-License-Identifier: MIT\r\npragma solidity >=0.4.22 <0.9.0;\r\n\r\nimport \"./ERC721Metadata.sol\";\r\nimport \"./ERC721Enumerable.sol\";\r\n\r\ncontract ERC721Connector is ERC721Metadata, ERC721Enumerable {\r\n\r\n  // we want to carry the metadata info over\r\n  constructor (string memory named, string memory symbolified) ERC721Metadata(named, symbolified) {\r\n  }\r\n}",
  "sourcePath": "C:\\git\\2po\\2plusone\\src\\contracts\\ERC721Connector.sol",
  "compiler": {
    "name": "solc",
    "version": "0.8.13+commit.abaa5c0e.Emscripten.clang"
  },
  "schemaVersion": "3.4.14",
  "updatedAt": "2023-08-01T13:21:32.706Z",
  "devdoc": {
    "kind": "dev",
    "methods": {
      "balanceOf(address)": {
        "details": "NFTs assigned to the zero address are considered invalid, and this  function throws for queries about the zero address.",
        "params": {
          "_owner": "An address for whom to query the balance"
        },
        "returns": {
          "_0": "The number of NFTs owned by `_owner`, possibly zero"
        }
      },
      "ownerOf(uint256)": {
        "details": "NFTs assigned to zero address are considered invalid, and queries  about them do throw.",
        "params": {
          "_tokenId": "The identifier for an NFT"
        },
        "returns": {
          "_0": "The address of the owner of the NFT"
        }
      },
      "supportsInterface(bytes4)": {
        "details": "Interface identification is specified in ERC-165. This function  uses less than 30,000 gas.",
        "params": {
          "interfaceID": "The interface identifier, as specified in ERC-165"
        },
        "returns": {
          "_0": "`true` if the contract implements `interfaceID` and  `interfaceID` is not 0xffffffff, `false` otherwise"
        }
      }
    },
    "version": 1
  },
  "userdoc": {
    "kind": "user",
    "methods": {
      "balanceOf(address)": {
        "notice": "Count all NFTs assigned to an owner"
      },
      "ownerOf(uint256)": {
        "notice": "Find the owner of an NFT"
      },
      "supportsInterface(bytes4)": {
        "notice": "Query if a contract implements an interface"
      }
    },
    "version": 1
  }
}