{
  "contractName": "Meoww",
  "abi": [
    {
      "inputs": [],
      "stateMutability": "nonpayable",
      "type": "constructor"
    },
    {
      "anonymous": false,
      "inputs": [
        {
          "indexed": true,
          "internalType": "address",
          "name": "_owner",
          "type": "address"
        },
        {
          "indexed": true,
          "internalType": "address",
          "name": "_approved",
          "type": "address"
        },
        {
          "indexed": true,
          "internalType": "uint256",
          "name": "_tokenId",
          "type": "uint256"
        }
      ],
      "name": "Approval",
      "type": "event"
    },
    {
      "anonymous": false,
      "inputs": [
        {
          "indexed": true,
          "internalType": "address",
          "name": "_from",
          "type": "address"
        },
        {
          "indexed": true,
          "internalType": "address",
          "name": "_to",
          "type": "address"
        },
        {
          "indexed": true,
          "internalType": "uint256",
          "name": "_tokenId",
          "type": "uint256"
        }
      ],
      "name": "Transfer",
      "type": "event"
    },
    {
      "inputs": [
        {
          "internalType": "address",
          "name": "_owner",
          "type": "address"
        }
      ],
      "name": "balanceOf",
      "outputs": [
        {
          "internalType": "uint256",
          "name": "",
          "type": "uint256"
        }
      ],
      "stateMutability": "view",
      "type": "function",
      "constant": true
    },
    {
      "inputs": [
        {
          "internalType": "uint256",
          "name": "",
          "type": "uint256"
        }
      ],
      "name": "meowwz",
      "outputs": [
        {
          "internalType": "string",
          "name": "",
          "type": "string"
        }
      ],
      "stateMutability": "view",
      "type": "function",
      "constant": true
    },
    {
      "inputs": [],
      "name": "name",
      "outputs": [
        {
          "internalType": "string",
          "name": "",
          "type": "string"
        }
      ],
      "stateMutability": "view",
      "type": "function",
      "constant": true
    },
    {
      "inputs": [
        {
          "internalType": "uint256",
          "name": "_tokenId",
          "type": "uint256"
        }
      ],
      "name": "ownerOf",
      "outputs": [
        {
          "internalType": "address",
          "name": "",
          "type": "address"
        }
      ],
      "stateMutability": "view",
      "type": "function",
      "constant": true
    },
    {
      "inputs": [
        {
          "internalType": "bytes4",
          "name": "interfaceID",
          "type": "bytes4"
        }
      ],
      "name": "supportsInterface",
      "outputs": [
        {
          "internalType": "bool",
          "name": "",
          "type": "bool"
        }
      ],
      "stateMutability": "view",
      "type": "function",
      "constant": true
    },
    {
      "inputs": [],
      "name": "symbol",
      "outputs": [
        {
          "internalType": "string",
          "name": "",
          "type": "string"
        }
      ],
      "stateMutability": "view",
      "type": "function",
      "constant": true
    },
    {
      "inputs": [
        {
          "internalType": "uint256",
          "name": "index",
          "type": "uint256"
        }
      ],
      "name": "tokenByIndex",
      "outputs": [
        {
          "internalType": "uint256",
          "name": "",
          "type": "uint256"
        }
      ],
      "stateMutability": "view",
      "type": "function",
      "constant": true
    },
    {
      "inputs": [
        {
          "internalType": "address",
          "name": "owner",
          "type": "address"
        },
        {
          "internalType": "uint256",
          "name": "index",
          "type": "uint256"
        }
      ],
      "name": "tokenOfOwnerByIndex",
      "outputs": [
        {
          "internalType": "uint256",
          "name": "",
          "type": "uint256"
        }
      ],
      "stateMutability": "view",
      "type": "function",
      "constant": true
    },
    {
      "inputs": [],
      "name": "totalSupply",
      "outputs": [
        {
          "internalType": "uint256",
          "name": "",
          "type": "uint256"
        }
      ],
      "stateMutability": "view",
      "type": "function",
      "constant": true
    },
    {
      "inputs": [
        {
          "internalType": "address",
          "name": "to",
          "type": "address"
        },
        {
          "internalType": "string",
          "name": "_meoww",
          "type": "string"
        }
      ],
      "name": "mint",
      "outputs": [],
      "stateMutability": "nonpayable",
      "type": "function"
    }
  ],
  "bytecode": "0x60806040523480156200001157600080fd5b506040518060400160405280600581526020017f4d656f77770000000000000000000000000000000000000000000000000000008152506040518060400160405280600381526020017f4d455700000000000000000000000000000000000000000000000000000000008152508181620000b17f01ffc9a7a5cef8baa21ed3c5c0d7e23accb804b619e9333b597f47a0d84076e2620001e660201b60201c565b620001047f13b182f4c0e5b2efbac0efe6cf6d756c8b89f4b79c5707a043ed9ea740574ee97f7feaf19471f34a12a7eaf32d5f3090aa2260ea8624dc8a138e74e0bf0f62307618620001e660201b60201c565b81600190805190602001906200011c929190620002bd565b50806002908051906020019062000135929190620002bd565b5050506200018b7f3a6eb71757dfc6e784c1459d26270140c2c147d95ca985c80026fc5301c3eca17f8a7e378434598edc36d108689a030cbc9d7d465de4f74c71bae1028eed6a881b18620001e660201b60201c565b620001de7f6da5e1284143cdd2d15038a59bde3be031250f00291d64494c12d967b3a4e0c37fc53637662700e6c65104059db8bba34439e0c32483ab7c34e3ccae52c739549518620001e660201b60201c565b505062000454565b63ffffffff60e01b817bffffffffffffffffffffffffffffffffffffffffffffffffffffffff19160362000251576040517f08c379a00000000000000000000000000000000000000000000000000000000081526004016200024890620003ce565b60405180910390fd5b6001600080837bffffffffffffffffffffffffffffffffffffffffffffffffffffffff19167bffffffffffffffffffffffffffffffffffffffffffffffffffffffff1916815260200190815260200160002060006101000a81548160ff02191690831515021790555050565b828054620002cb906200041f565b90600052602060002090601f016020900481019282620002ef57600085556200033b565b82601f106200030a57805160ff19168380011785556200033b565b828001600101855582156200033b579182015b828111156200033a5782518255916020019190600101906200031d565b5b5090506200034a91906200034e565b5090565b5b80821115620003695760008160009055506001016200034f565b5090565b600082825260208201905092915050565b7f496e76616c696420696e74657266616365207265717565737400000000000000600082015250565b6000620003b66019836200036d565b9150620003c3826200037e565b602082019050919050565b60006020820190508181036000830152620003e981620003a7565b9050919050565b7f4e487b7100000000000000000000000000000000000000000000000000000000600052602260045260246000fd5b600060028204905060018216806200043857607f821691505b6020821081036200044e576200044d620003f0565b5b50919050565b61162e80620004646000396000f3fe608060405234801561001057600080fd5b506004361061009e5760003560e01c80634f6ccce7116100665780634f6ccce71461016f5780636352211e1461019f57806370a08231146101cf57806395d89b41146101ff578063d0def5211461021d5761009e565b806301ffc9a7146100a357806306fdde03146100d357806318160ddd146100f15780631be597de1461010f5780632f745c591461013f575b600080fd5b6100bd60048036038101906100b89190610c7a565b610239565b6040516100ca9190610cc2565b60405180910390f35b6100db6102a0565b6040516100e89190610d76565b60405180910390f35b6100f9610332565b6040516101069190610db1565b60405180910390f35b61012960048036038101906101249190610df8565b61033f565b6040516101369190610d76565b60405180910390f35b61015960048036038101906101549190610e83565b6103eb565b6040516101669190610db1565b60405180910390f35b61018960048036038101906101849190610df8565b61049b565b6040516101969190610db1565b60405180910390f35b6101b960048036038101906101b49190610df8565b61050c565b6040516101c69190610ed2565b60405180910390f35b6101e960048036038101906101e49190610eed565b6105bd565b6040516101f69190610db1565b60405180910390f35b610207610674565b6040516102149190610d76565b60405180910390f35b6102376004803603810190610232919061104f565b610706565b005b6000806000837bffffffffffffffffffffffffffffffffffffffffffffffffffffffff19167bffffffffffffffffffffffffffffffffffffffffffffffffffffffff1916815260200190815260200160002060009054906101000a900460ff169050919050565b6060600180546102af906110da565b80601f01602080910402602001604051908101604052809291908181526020018280546102db906110da565b80156103285780601f106102fd57610100808354040283529160200191610328565b820191906000526020600020905b81548152906001019060200180831161030b57829003601f168201915b5050505050905090565b6000600580549050905090565b6009818154811061034f57600080fd5b90600052602060002001600091509050805461036a906110da565b80601f0160208091040260200160405190810160405280929190818152602001828054610396906110da565b80156103e35780601f106103b8576101008083540402835291602001916103e3565b820191906000526020600020905b8154815290600101906020018083116103c657829003601f168201915b505050505081565b60006103f6836105bd565b8210610437576040517f08c379a000000000000000000000000000000000000000000000000000000000815260040161042e9061117d565b60405180910390fd5b600760008473ffffffffffffffffffffffffffffffffffffffff1673ffffffffffffffffffffffffffffffffffffffff16815260200190815260200160002082815481106104885761048761119d565b5b9060005260206000200154905092915050565b60006104a5610332565b82106104e6576040517f08c379a00000000000000000000000000000000000000000000000000000000081526004016104dd9061123e565b60405180910390fd5b600582815481106104fa576104f961119d565b5b90600052602060002001549050919050565b6000806003600084815260200190815260200160002060009054906101000a900473ffffffffffffffffffffffffffffffffffffffff169050600073ffffffffffffffffffffffffffffffffffffffff168173ffffffffffffffffffffffffffffffffffffffff16036105b4576040517f08c379a00000000000000000000000000000000000000000000000000000000081526004016105ab906112d0565b60405180910390fd5b80915050919050565b60008073ffffffffffffffffffffffffffffffffffffffff168273ffffffffffffffffffffffffffffffffffffffff160361062d576040517f08c379a000000000000000000000000000000000000000000000000000000000815260040161062490611362565b60405180910390fd5b600460008373ffffffffffffffffffffffffffffffffffffffff1673ffffffffffffffffffffffffffffffffffffffff168152602001908152602001600020549050919050565b606060028054610683906110da565b80601f01602080910402602001604051908101604052809291908181526020018280546106af906110da565b80156106fc5780601f106106d1576101008083540402835291602001916106fc565b820191906000526020600020905b8154815290600101906020018083116106df57829003601f168201915b5050505050905090565b600a8160405161071691906113be565b908152602001604051809103902060009054906101000a900460ff1615610772576040517f08c379a000000000000000000000000000000000000000000000000000000000815260040161076990611421565b60405180910390fd5b6009819080600181540180825580915050600190039060005260206000200160009091909190915090805190602001906107ad929190610b6b565b50600060016009805490506107c29190611470565b90506107ce838261080a565b6001600a836040516107e091906113be565b908152602001604051809103902060006101000a81548160ff021916908315150217905550505050565b610814828261082b565b61081d816109ec565b6108278282610a35565b5050565b600073ffffffffffffffffffffffffffffffffffffffff168273ffffffffffffffffffffffffffffffffffffffff160361089a576040517f08c379a000000000000000000000000000000000000000000000000000000000815260040161089190611516565b60405180910390fd5b6108a381610af9565b156108e3576040517f08c379a00000000000000000000000000000000000000000000000000000000081526004016108da90611582565b60405180910390fd5b816003600083815260200190815260200160002060006101000a81548173ffffffffffffffffffffffffffffffffffffffff021916908373ffffffffffffffffffffffffffffffffffffffff1602179055506001600460008473ffffffffffffffffffffffffffffffffffffffff1673ffffffffffffffffffffffffffffffffffffffff168152602001908152602001600020600082825461098591906115a2565b92505081905550808273ffffffffffffffffffffffffffffffffffffffff16600073ffffffffffffffffffffffffffffffffffffffff167fddf252ad1be2c89b69c2b068fc378daa952ba7f163c4a11628f55a4df523b3ef60405160405180910390a45050565b6005805490506006600083815260200190815260200160002081905550600581908060018154018082558091505060019003906000526020600020016000909190919091505550565b600760008373ffffffffffffffffffffffffffffffffffffffff1673ffffffffffffffffffffffffffffffffffffffff168152602001908152602001600020805490506008600083815260200190815260200160002081905550600760008373ffffffffffffffffffffffffffffffffffffffff1673ffffffffffffffffffffffffffffffffffffffff1681526020019081526020016000208190806001815401808255809150506001900390600052602060002001600090919091909150555050565b6000806003600084815260200190815260200160002060009054906101000a900473ffffffffffffffffffffffffffffffffffffffff169050600073ffffffffffffffffffffffffffffffffffffffff168173ffffffffffffffffffffffffffffffffffffffff161415915050919050565b828054610b77906110da565b90600052602060002090601f016020900481019282610b995760008555610be0565b82601f10610bb257805160ff1916838001178555610be0565b82800160010185558215610be0579182015b82811115610bdf578251825591602001919060010190610bc4565b5b509050610bed9190610bf1565b5090565b5b80821115610c0a576000816000905550600101610bf2565b5090565b6000604051905090565b600080fd5b600080fd5b60007fffffffff0000000000000000000000000000000000000000000000000000000082169050919050565b610c5781610c22565b8114610c6257600080fd5b50565b600081359050610c7481610c4e565b92915050565b600060208284031215610c9057610c8f610c18565b5b6000610c9e84828501610c65565b91505092915050565b60008115159050919050565b610cbc81610ca7565b82525050565b6000602082019050610cd76000830184610cb3565b92915050565b600081519050919050565b600082825260208201905092915050565b60005b83811015610d17578082015181840152602081019050610cfc565b83811115610d26576000848401525b50505050565b6000601f19601f8301169050919050565b6000610d4882610cdd565b610d528185610ce8565b9350610d62818560208601610cf9565b610d6b81610d2c565b840191505092915050565b60006020820190508181036000830152610d908184610d3d565b905092915050565b6000819050919050565b610dab81610d98565b82525050565b6000602082019050610dc66000830184610da2565b92915050565b610dd581610d98565b8114610de057600080fd5b50565b600081359050610df281610dcc565b92915050565b600060208284031215610e0e57610e0d610c18565b5b6000610e1c84828501610de3565b91505092915050565b600073ffffffffffffffffffffffffffffffffffffffff82169050919050565b6000610e5082610e25565b9050919050565b610e6081610e45565b8114610e6b57600080fd5b50565b600081359050610e7d81610e57565b92915050565b60008060408385031215610e9a57610e99610c18565b5b6000610ea885828601610e6e565b9250506020610eb985828601610de3565b9150509250929050565b610ecc81610e45565b82525050565b6000602082019050610ee76000830184610ec3565b92915050565b600060208284031215610f0357610f02610c18565b5b6000610f1184828501610e6e565b91505092915050565b600080fd5b600080fd5b7f4e487b7100000000000000000000000000000000000000000000000000000000600052604160045260246000fd5b610f5c82610d2c565b810181811067ffffffffffffffff82111715610f7b57610f7a610f24565b5b80604052505050565b6000610f8e610c0e565b9050610f9a8282610f53565b919050565b600067ffffffffffffffff821115610fba57610fb9610f24565b5b610fc382610d2c565b9050602081019050919050565b82818337600083830152505050565b6000610ff2610fed84610f9f565b610f84565b90508281526020810184848401111561100e5761100d610f1f565b5b611019848285610fd0565b509392505050565b600082601f83011261103657611035610f1a565b5b8135611046848260208601610fdf565b91505092915050565b6000806040838503121561106657611065610c18565b5b600061107485828601610e6e565b925050602083013567ffffffffffffffff81111561109557611094610c1d565b5b6110a185828601611021565b9150509250929050565b7f4e487b7100000000000000000000000000000000000000000000000000000000600052602260045260246000fd5b600060028204905060018216806110f257607f821691505b602082108103611105576111046110ab565b5b50919050565b7f455243373231456e756d657261626c653a206f776e657220696e646578206f7560008201527f74206f6620626f756e6473000000000000000000000000000000000000000000602082015250565b6000611167602b83610ce8565b91506111728261110b565b604082019050919050565b600060208201905081810360008301526111968161115a565b9050919050565b7f4e487b7100000000000000000000000000000000000000000000000000000000600052603260045260246000fd5b7f455243373231456e756d657261626c653a20676c6f62616c20696e646578206f60008201527f7574206f6620626f756e64730000000000000000000000000000000000000000602082015250565b6000611228602c83610ce8565b9150611233826111cc565b604082019050919050565b600060208201905081810360008301526112578161121b565b9050919050565b7f4552433732313a206f776e657220717565727920666f72206e6f6e657869737460008201527f656e7420746f6b656e0000000000000000000000000000000000000000000000602082015250565b60006112ba602983610ce8565b91506112c58261125e565b604082019050919050565b600060208201905081810360008301526112e9816112ad565b9050919050565b7f4552433732313a2062616c616e636520717565727920666f7220746865207a6560008201527f726f206164647265737300000000000000000000000000000000000000000000602082015250565b600061134c602a83610ce8565b9150611357826112f0565b604082019050919050565b6000602082019050818103600083015261137b8161133f565b9050919050565b600081905092915050565b600061139882610cdd565b6113a28185611382565b93506113b2818560208601610cf9565b80840191505092915050565b60006113ca828461138d565b915081905092915050565b7f4572726f72202d206d656f777720616c72656164792065786973747300000000600082015250565b600061140b601c83610ce8565b9150611416826113d5565b602082019050919050565b6000602082019050818103600083015261143a816113fe565b9050919050565b7f4e487b7100000000000000000000000000000000000000000000000000000000600052601160045260246000fd5b600061147b82610d98565b915061148683610d98565b92508282101561149957611498611441565b5b828203905092915050565b7f4552433732313a206d696e74696e6720746f20746865207a65726f206164647260008201527f6573730000000000000000000000000000000000000000000000000000000000602082015250565b6000611500602383610ce8565b915061150b826114a4565b604082019050919050565b6000602082019050818103600083015261152f816114f3565b9050919050565b7f4552433732313a20746f6b656e20616c7265616479206d696e74656400000000600082015250565b600061156c601c83610ce8565b915061157782611536565b602082019050919050565b6000602082019050818103600083015261159b8161155f565b9050919050565b60006115ad82610d98565b91506115b883610d98565b9250827fffffffffffffffffffffffffffffffffffffffffffffffffffffffffffffffff038211156115ed576115ec611441565b5b82820190509291505056fea26469706673582212204ba9273d58b1c1fa13a9325400ca6e2408e670e4ad4413b0a084e5d4bbf6971b64736f6c634300080d0033",
  "immutableReferences": {},
  "source": "// SPDX-License-Identifier: MIT\r\npragma solidity >=0.4.22 <0.9.0;\r\n\r\nimport './ERC721Connector.sol';\r\n\r\ncontract Meoww is ERC721Connector {\r\n\r\n  //  ->    \r\n  string[] public meowwz;\r\n\r\n  mapping(string => bool) _meowwzExists;\r\n\r\n  // ERC721 -> tokenId \r\n  // Meoww ->  \r\n  function mint(address to, string memory _meoww) public {\r\n\r\n    require(!_meowwzExists[_meoww], 'Error - meoww already exists');\r\n    // this is deprecated - uint _id = meowwz.push(_meoww);\r\n    meowwz.push(_meoww);\r\n    uint _id = meowwz.length - 1;\r\n\r\n    // .push no longer returns the length but a ref to the added element\r\n    _mint(to, _id);\r\n\r\n    _meowwzExists[_meoww] = true;\r\n  }\r\n\r\n  // initialize this contract to inherit\r\n  // name and symbol from ERC721Metadata so that\r\n  // the name is Meoww and the symbol is MEW\r\n\r\n  constructor() ERC721Connector(\"Meoww\", \"MEW\") {\r\n  }\r\n\r\n}",
  "sourcePath": "C:\\git\\2po\\2plusone\\src\\contracts\\Meoww.sol",
  "compiler": {
    "name": "solc",
    "version": "0.8.13+commit.abaa5c0e.Emscripten.clang"
  },
  "schemaVersion": "3.4.14",
  "updatedAt": "2023-08-01T13:21:40.332Z",
  "networkType": "ethereum",
  "devdoc": {
    "kind": "dev",
    "methods": {
      "balanceOf(address)": {
        "details": "NFTs assigned to the zero address are considered invalid, and this  function throws for queries about the zero address.",
        "params": {
          "_owner": "An address for whom to query the balance"
        },
        "returns": {
          "_0": "The number of NFTs owned by `_owner`, possibly zero"
        }
      },
      "ownerOf(uint256)": {
        "details": "NFTs assigned to zero address are considered invalid, and queries  about them do throw.",
        "params": {
          "_tokenId": "The identifier for an NFT"
        },
        "returns": {
          "_0": "The address of the owner of the NFT"
        }
      },
      "supportsInterface(bytes4)": {
        "details": "Interface identification is specified in ERC-165. This function  uses less than 30,000 gas.",
        "params": {
          "interfaceID": "The interface identifier, as specified in ERC-165"
        },
        "returns": {
          "_0": "`true` if the contract implements `interfaceID` and  `interfaceID` is not 0xffffffff, `false` otherwise"
        }
      }
    },
    "version": 1
  },
  "userdoc": {
    "kind": "user",
    "methods": {
      "balanceOf(address)": {
        "notice": "Count all NFTs assigned to an owner"
      },
      "ownerOf(uint256)": {
        "notice": "Find the owner of an NFT"
      },
      "supportsInterface(bytes4)": {
        "notice": "Query if a contract implements an interface"
      }
    },
    "version": 1
  }
}